:1000000085C60000ABC60000A9C60000A7C6000058
:10001000A5C60000A3C60000A1C600009FC6000040
:100020009DC600009BC6000099C6000097C6000050
:1000300095C6000093C600000C94751E0C94181F02
:100040008DC600008BC6000089C6000087C6000070
:1000500085C6000083C6000081C600007FC6000080
:100060007DC600000C944D1E79C6000077C60000C6
:1000700075C6000073C6000071C600006FC60000A0
:100080006DC600006BC6000069C6000067C60000B0
:1000900065C6000063C6000061C600005FC60000C0
:1000A00021002100202054494D4544204F55540043
:1000B00043007E0056007E0048454154494E4700AB
:1000C0000100018001800140024022442424552681
:1000D00049968289A441985244622384181807E003
:1000E000430048454154494E47002100210020204B
:1000F00043414E43454C4C45440021002100430000
:100100007E002020434F4F4C20444F574E000004A8
:10011000000A0015002A005400A8015022A05540F2
:10012000AA8055002A00140008007FE02020434FD9
:100130004D504C45544544202000430054454D50FB
:1001400000426567696E2048656174696E670042A8
:100150004F54482020425554544F4E53002054656C
:100160006D706572617475726500204368616E67B9
:100170006520204D41580053494E474C452042557B
:1001800054544F4E0000000000003E5B4F5B3E3E6B
:100190006B4F6B3E1C3E7C3E1C183C7E3C181C5733
:1001A0007D571C1C5E7F5E1C00183C1800FFE7C3D7
:1001B000E7FF0018241800FFE7DBE7FF30483A06A6
:1001C0000E2629792926407F050507407F05253F12
:1001D0005A3CE73C5A7F3E1C1C08081C1C3E7F14FE
:1001E000227F22145F5F005F5F06097F017F006648
:1001F00089956A606060606094A2FFA29408047EA2
:10020000040810207E201008082A1C08081C2A0850
:10021000081E101010100C1E0C1E0C30383E38300A
:10022000060E3E0E06000000000000005F00000009
:1002300007000700147F147F14242A7F2A12231337
:1002400008646236495620500008070300001C224B
:1002500041000041221C002A1C7F1C2A08083E087D
:10026000080080703000080808080800006060007E
:1002700020100804023E5149453E00427F40007272
:10028000494949462141494D331814127F102745E9
:100290004545393C4A494931412111090736494907
:1002A0004936464949291E00001400000040340028
:1002B00000000814224114141414140041221408DC
:1002C00002015909063E415D594E7C1211127C7F94
:1002D000494949363E414141227F4141413E7F49A2
:1002E0004949417F090909013E414151737F08088D
:1002F000087F00417F41002040413F017F081422D8
:10030000417F404040407F021C027F7F0408107FF5
:100310003E4141413E7F090909063E4151215E7F30
:1003200009192946264949493203017F01033F4003
:1003300040403F1F2040201F3F4038403F6314088B
:10034000146303047804036159494D43007F41411C
:10035000410204081020004141417F0402010204CF
:100360004040404040000307080020545478407F3C
:10037000284444383844444428384444287F385476
:1003800054541800087E090218A4A49C787F08041D
:10039000047800447D40002040403D007F10284408
:1003A0000000417F40007C047804787C08040478D5
:1003B0003844444438FC1824241818242418FC7C9D
:1003C00008040408485454542404043F44243C4082
:1003D00040207C1C2040201C3C4030403C442810E5
:1003E00028444C9090907C4464544C44000836411E
:1003F00000000077000000413608000201020402FC
:100400003C2623263C1EA1A161123A4040207A38A6
:100410005454555921555579412254547842215507
:1004200054784020545579400C1E5272123955555B
:100430005559395454545939555454580000457C31
:10044000410002457D420001457C407D1211127D34
:10045000F0282528F07C545545002054547C547CC9
:100460000A097F4932494949323A4444443A324AB6
:100470004848303A4141217A3A42402078009DA0D4
:10048000A07D3D4242423D3D4040403D3C24FF2452
:1004900024487E4943662B2FFC2F2BFF0929F62089
:1004A000C0887E090320545479410000447D4130C6
:1004B00048484A32384040227A007A0A0A727D0D52
:1004C00019317D2629292F28262929292630484D0A
:1004D0004020380808080808080808382F10C8AC59
:1004E000BA2F102834FA00007B000008142A1422C6
:1004F00022142A14085500550055AA55AA55AAFFDA
:1005000055FF55FF000000FF00101010FF001414ED
:1005100014FF001010FF00FF1010F010F01414145E
:10052000FC001414F700FF0000FF00FF1414F40493
:10053000FC141417101F10101F101F1414141F0088
:10054000101010F0000000001F101010101F1010ED
:100550001010F010000000FF1010101010101010FC
:1005600010FF10000000FF140000FF00FF00001F3C
:1005700010170000FC04F414141710171414F404DA
:10058000F40000FF00F714141414141414F700F707
:10059000141414171410101F101F141414F4141032
:1005A00010F010F000001F101F0000001F140000CA
:1005B00000FC140000F010F01010FF10FF141414D1
:1005C000FF141010101F00000000F010FFFFFFFFCD
:1005D000FFF0F0F0F0F0FFFFFF0000000000FFFF71
:1005E0000F0F0F0F0F3844443844FC4A4A4A347EF8
:1005F00002020606027E027E0263554941633844C8
:10060000443C04407E201E2006027E020299A5E79B
:10061000A5991C2A492A1C4C7201724C304A4D4D36
:10062000303048784830BC625A463D3E494949001E
:100630007E0101017E2A2A2A2A2A44445F4444403A
:10064000514A444040444A51400000FF0103E080C9
:10065000FF000008086B6B083612362436060F09B7
:100660000F06000018180000001010003040FF01B5
:1006700001001F01011E00191D1712003C3C3C3CEB
:100680000000000000000103070F1F3F7F0080C033
:10069000E0F0F8FCFEDB40A4A62EAF2000A1C8D3FA
:1006A00000408DAED580A800006000000000000072
:1006B0000000000000000000E0000000000000005A
:1006C00000000000000001E0000000000000000049
:1006D000000000000001F000000000000000000029
:1006E0000000000003F00000000000000000000017
:1006F00000000007F0000000000000000000000003
:10070000000007F8000000000000000000000000EA
:10071000000FF800000003C0007E000001E0007F31
:100720000FF800000003C000FE000001E000FFEF32
:10073000F800000003C000FE000001E000FFFFF829
:1007400000000003C000F00000000F007FFE7FC02B
:10075000000003C000F00000000F003FFE7FF83FE4
:10076000F1FBCFFCFEF3BC3DEFE01FFE7FFF7FFB04
:10077000FFDFFEFEFFBC3DEFE01FC6FFFF7FFBFF7C
:10078000DFFEFEFFBC3DEFE00FE3C7FE787BC3DE7C
:100790001EF0FFBC3DEF0007FF87FC787BC3DE1E29
:1007A000F0F83C3DEF0001FFFFF0007BC3C01EF0FE
:1007B000F03C3DEF0001F37FE03FFBC3CFFEF0F0E4
:1007C0003C3DEF0003E33F807FFBC3DFFEF0F03CE6
:1007D0003DEF0007E73C00787BC3DE1EF0F03C3DB8
:1007E000EF0007FFBE00787BC3DE1EF0F03C3DEF5C
:1007F0000007FFFE00787BC3DE1EF0F03C3DEF00FB
:100800000FFFFE007FFBFFDFFEF0F03FFDEFE00F8C
:10081000FFFF007FFBFFDFFEF0F03FFDEFE00FF991
:10082000FF003E79F9CF9EF0F01F3DE7E01FF1FF9A
:100830000000000000000000000000001F80FF001A
:100840007FFFFFFFFFFFFFFFFFFFE01C007F007F38
:10085000FFFFFFFEB46D888D18E000001F007FFFD2
:10086000FFFFFE95AD7DB577E000000F007FFFFF35
:10087000FFFEA5AD9D8D19E0000006007FFFFFFF84
:10088000FEB5ADEDB57EE000000000000180000087
:1008900000000000000000038000000000000000D5
:1008A000000007C000000000000000000007C000BA
:1008B00000000000000000000FC000000000000069
:1008C0000000001FE00000000000000000001FE02A
:1008D0000000000000000000003FE00000000000F9
:1008E000000000003FF00000000000000000007F5A
:1008F000F0000000000000001FF87FF00000000082
:100900000000003FFE7FF0000000000000003FFFFD
:100910007FF0000000000000001FFFFBE00000006F
:10092000000000000FFFF9FFC00000000000000FF2
:10093000FFF9FFF800000000000007FFF1FFFF00D3
:10094000000000000003FC73FFFF800000000000B7
:1009500001FE3FFFFF80000000000000FF1E0FFFB0
:10096000000000000000007FFE1FFC0000000000EF
:1009700000003FFFFFF8000000000000000FDFFF55
:10098000E0000000000000001F19FFC00000000090
:100990000000003F3CFF00000000000000007E7CE3
:1009A000F800000000000000007FFE7C0000000056
:1009B00000000000FFFFFC0000000000000000FF3E
:1009C000FFFE0000000000000000FFFFFE0000002E
:1009D0000000000001FFEFFE000000000000000129
:1009E000FFCFFE0000000000000003FF07FE000034
:1009F000000000000003FC07FE00000000000000F3
:100A000003F003FE00000000000000018000FE0073
:100A10000000000000000000007E00000000000058
:100A2000000000003E000000000000000000000C7C
:100A3000000000000000078000FC000003C0000070
:100A400000078001FC000003C0000000078001FCDB
:100A5000000003C0000000078001E00000001E004D
:100A60000000078001E00000001E007FE3F79FF90F
:100A7000FDE7787BDFC0FFF7FFBFFDFDFF787BDF81
:100A8000C0FFF7FFBFFDFDFF787BDFC0F0F787BC3D
:100A90003DE1FF787BDE00F0F787BC3DE1F0787B3D
:100AA000DE0000F787803DE1E0787BDE007FF7879E
:100AB0009FFDE1E0787BDE00FFF787BFFDE1E07896
:100AC0007BDE00F0F787BC3DE1E0787BDE00F0F7ED
:100AD00087BC3DE1E0787BDE00F0F787BC3DE1E0DC
:100AE000787BDE00FFF7FFBFFDE1E07FFBDFC0FFAB
:100AF000F7FFBFFDE1E07FFBDFC07CF3F39F3DE14B
:100B0000E03E7BCFC00000000000000000000000BD
:100B1000FFFFFFFFFFFFFFFFFFFFC0FFFFFFFFFD26
:100B200068DB111A31C0FFFFFFFFFD2B5AFB6AEF94
:100B3000C0FFFFFFFFFD4B5B3B1A33C0FFFFFFFF12
:100B4000FD6B5BDB6AFDC0482F57205600532F57C3
:100B5000205600000000010000000000000000001E
:100B6000000000000000018000000000001F0000E5
:100B7000000000000000018000001FC00031800064
:100B80000000001FE00301800000307000218000A1
:100B900000000010200300C780002018F0618000D2
:100BA0000000001800033ECCC0C00419986180000A
:100BB0000000001C01F377D8C7E0063318618F8866
:100BC00000000006033B61D0C60007E2186198D818
:100BD00004000001C60B60D98600060330FFB07820
:100BE00066000040E40F60DF06000703E031E078B4
:100BF000620000403C0F61D8060007830031E078B6
:100C000063000060361B63C8020002C10018B0CC4C
:100C1000E2000030333B364E03000261C00C99CD38
:100C2000FE00000FE1E13C03F30002387E0C8F0769
:100C30009C00000000000000000000080000000010
:100C4000000000000000180000000000000000008C
:100C50000000007F84001800000000000000000079
:100C6000000000C0E4001838000000000000000090
:100C7000000000043C3C186C000000000000000074
:100C8000000000041E067FC60000000000000000F7
:100C9000000000043E031886000000000000000071
:100CA00000000004367F198C0000000000000000E6
:100CB00000000007E6C719F800000000000000006F
:100CC00000000006078318800000000000000000FC
:100CD00000000006078118C00000000000000000AE
:100CE0000000000606C3987000000000000000002D
:100CF00000000002047E083F8000000000000000A9
:100D00000000002200FF2100CE1FE92311241FBE96
:100D1000CFEFCDBFDFE3DEBF28E2A6E0B8E201C03F
:100D20001D92AB3DB207E1F718E2A0E0B8E2E1E5C1
:100D3000F1E502C005900D92A630B107D9F716E093
:100D4000C5E8D6E004C02197FE010E94A926C43858
:100D5000D107C9F70E944C200C94EE2751C9089581
:100D6000AF92BF92CF92DF92EF92FF920F931F93B9
:100D7000CF93DF936C017B018B01040F151FEB01F7
:100D80005E01AE18BF08C017D10759F06991D601AE
:100D9000ED91FC910190F081E02DC6010995892B20
:100DA00079F7C501DF91CF911F910F91FF90EF90DF
:100DB000DF90CF90BF90AF900895CF93DF9390E0F6
:100DC000FC01E350F04720812F3F79F0633068F455
:100DD000FC01EA5DFF46A08130E2A39FD00111240F
:100DE000BC5F613029F411962C93DF91CF91089567
:100DF00088589F46EC01E881EF3F81F0CD01409695
:100E0000E80FF92FF11D9FB7F89412962C9380816B
:100E1000623039F4886080839FBFE7CFF0E0E0E084
:100E2000F2CF877FF8CF893208F4C7CF089590E0DA
:100E3000FC01E15BFF46E081EE2319F1E13021F096
:100E400000F1E630A8F0089588589F46FC01208103
:100E5000233008F02F5F3091010A81E090E001C05B
:100E6000880F2A95EAF7809583238093010A0895D5
:100E700080E1E89FF0011124E05AF54F81818F7ED7
:100E8000818308950F931F93CF93DF93C82FD0E0F2
:100E9000FE01E350F04700810F3F99F0162F893291
:100EA00008F4C5DFFE01EA5DFF46E08180E2E89FCD
:100EB000F0011124FC5F8081802351F0111106C0E4
:100EC0000683DF91CF911F910F9108950583F9CF8C
:100ED000C858DF468881309771F08F3F61F0709677
:100EE000E80FF11D9FB7F8948081111107C0877F2B
:100EF00080839FBFE6CFF0E0E0E0F4CF8860F8CFDA
:100F0000CF93DF93EC0161E081E157DF60E0209750
:100F100021F0CF3FD10529F461E081E1DF91CF914C
:100F2000B1CF8FB7F894C093290A8FBF8091010A7F
:100F300080618093010ADF91CF9108958FB7F89473
:100F40002091542830915528409156285091572887
:100F5000E091AA0AF091AB0A9091A60A90FF08C00E
:100F60002F5F3F4F4F4F5F4FE091AA0AF091AB0ABE
:100F70008FBFA8EEB3E00E94762624E0F695E795B1
:100F80002A95E1F76E0F7F1F811D911D08958F92A5
:100F90009F92AF92BF92CF92DF92EF92FF924B015E
:100FA0005C01CCDF6B017C01A8EEB3E0A5019401EC
:100FB0000E947626C60ED71EE81EF91EC616D70654
:100FC000E806F90610F4BADFF9CFB8DF6C157D0535
:100FD0008E059F05D0F3FF90EF90DF90CF90BF90EC
:100FE000AF909F908F9008952FB7F89460915428F8
:100FF0007091552880915628909157282FBF0895B9
:10100000EF92FF920F931F93CF93DF93EC01EC804D
:10101000FD806E157F050CF070C057FF04C0240FD3
:10102000351F50E040E08E819F81FA01E20FF31FEF
:101030008E179F071CF49C01241B350B12161306F8
:101040000CF05BC0922F842F8695869586958E9D99
:10105000D0018F9DB00D11246A0F7B1FAF8DB8A1F9
:10106000A60FB71F477049F188E0841B482F682FEF
:1010700070E0FB01E357F94FE491281708F063C0D3
:10108000621B71092FEF30E002C0359527956A95F4
:10109000E2F7E2230130110539F0B0F10230110519
:1010A00061F58C91E82702C08C91E82BEC939417A2
:1010B00020F12C813D81A20FB31FE92FE41BE83002
:1010C00078F00230110521F58E2F9C9190959C931C
:1010D0002C813D81A20FB31F88508830B0F7E77094
:1010E000EE2359F0F0E0EB57F94FE4910130110590
:1010F000F9F010F10230110519F1DF91CF911F9134
:101100000F91FF90EF900895E0958C91E823CECF5A
:1011100081E00115110509F480E081959E2F8C93E3
:101120002C813D81A20FB31F98509830C0F7D7CFC4
:101130008C91E82BEC93E1CFE0958C91E823FACFEA
:101140008C91E827F7CF0130110509F4ADCFE0F21B
:101150000230110509F4A5CFAE0DBF1DAECF0F9320
:101160001F93CF93DF9377FF04C0260F371F70E0E4
:1011700060E0DC011496CD91DC91FB01E20FF31FDE
:10118000CE17DF071CF49E01261B370B1216130621
:101190004CF5FA0157FD3796A3E0F595E795AA952A
:1011A000E1F7EC9FD001ED9FB00DFC9FB00D112435
:1011B0006A0F7B1FDC015F96ED91FC91E60FF71F34
:1011C0004770552781E090E001C0880F4A95EAF703
:1011D000482F0130110559F0A8F02E0F3F1F0230A3
:1011E0001105E1F0DF91CF911F910F9108952E0F1E
:1011F0003F1FE217F307B1F38191DF011197842BB1
:101200008C93F7CF80952E0F3F1FE217F30751F312
:101210009191DF01119798239C93F7CFE217F30781
:1012200009F38191DF01119784278C93F7CF0F93F6
:101230001F93FA01DC0156964C9156974230E1F02B
:10124000433091F1413059F514964D915C91DA019A
:10125000AE1BBF0BFD01E21BF30B77FD0AC0DC01E7
:1012600016964D915C91641775071CF4AB01BF0194
:1012700076DF1F910F91089514964D915C91DA01DC
:10128000A61BB70BBD0161507109DC0116964D918B
:101290005C91DA01AE1BBF0BFD01E21BF30B77FD86
:1012A000E8CFAF01ADDEE5CF16964D915C91DA0146
:1012B000A61BB70BBD0161507109CFCF0F931F93D0
:1012C000FA01DC0156964C9156974230A1F043301A
:1012D00081F1413011F514964D915C91DA01AE1B0C
:1012E000BF0BFD013197F7FD03C0AB01BF0188DEE5
:1012F0001F910F91089516964D915C91DA01AE1BE6
:10130000BF0BFD013197DC0114964D915C91DA0120
:10131000A61BB70BBD01621B730BF7FDE9CFDC0108
:1013200016964D915C91E417F50714F7AF0117DF9E
:10133000DFCF16964D915C91DA01A61BB70BBD016C
:10134000621B730BD0CFFC0177FD64C08085918553
:10135000681779070CF05EC057FD5CC082859385E5
:10136000481759070CF056C086898230B1F0833097
:1013700029F1813041F484819581841B950BAB0167
:10138000BC01615071092130310509F108F443C0F5
:101390002230310509F463C0089584819581DC0110
:1013A000A61BB70BBD016150710986819781DC01D5
:1013B000A41BB50BAD0141505109E5CF8681978142
:1013C000861B970BBA01AC0141505109DCCFCA0111
:1013D00057FD0796A3E095958795AA95E1F7A48117
:1013E000B5818A9F90018B9F300D9A9F300D1124FB
:1013F000620F731F078CF0A1E02DE60FF71F4770F7
:10140000552721E030E001C0220F4A95EAF780819C
:10141000822B80830895CA0157FD079633E0959586
:1014200087953A95E1F7A481B5818A9F90018B9FBA
:10143000300D9A9F300D1124620F731F078CF0A19D
:10144000E02DE60FF71F4770552781E090E001C0BF
:10145000880F4A95EAF7809590818923DACFCA01EF
:1014600057FD079623E0959587952A95E1F7A48186
:10147000B5818A9F90018B9F300D9A9F300D11246A
:10148000620F731F078CF0A1E02DE60FF71F477066
:10149000552721E030E001C0220F4A95EAF780810C
:1014A0008227B7CFE0EAF8E091859066918792E0D5
:1014B00090935C288093482810924728089581E0F3
:1014C000809347281092482893E09093AA0890911F
:1014D000AB0891FF0BC010925228F0E0E0E00995B4
:1014E0008093512885E080935C28089510925328BA
:1014F0008093502886E0F7CFCF92DF92EF92FF9251
:10150000CF93DF9328EE33E040E050E00E9438268E
:10151000283C310578F0C0E9D1E06CE271E020327E
:1015200083E0380758F0C8EED3E068E770E0203B6E
:10153000344020F0C4E6D0E068EE73E090E080E054
:1015400024E0660F771F881F991F2A95D1F728E19D
:101550003CEF4FEF5FEF0E945A2669017A019E012E
:1015600050E040E060E87EE380E090E00E945A2690
:10157000C701B601620F731F841F951F6A5071095E
:101580008109910922E030E040E050E00E945A26B3
:101590002093A608DF91CF91FF90EF90DF90CF903E
:1015A000089581E090E030915E2820915D28321707
:1015B00010F490E080E091958195910908958091D3
:1015C0005E2890915D28891730F48F5F80935E28A4
:1015D00090E080E008958FEF9FEF089580915D285F
:1015E00090915E28891B990B0895CF92DF92EF921C
:1015F000FF920F931F93CF93DF937C018A01EB013E
:101600006B01C40ED51ECC15DD0551F06991D701D3
:10161000ED91FC910190F081E02DC7010995F3CF88
:10162000C801DF91CF911F910F91FF90EF90DF9054
:10163000CF90089520916028203440F021E030E0E0
:10164000FC012283338390E080E00895809161283B
:10165000E82FF0E0E95FF74D60838F5F80936128AA
:101660008093602881E090E0089590915C2891300B
:1016700009F057C080915928811155C020916028E8
:1016800080916228909359281092582847E058E298
:1016900040934A2850934B2820934C2810924E2870
:1016A00010925A2810925B2890934D28880F8093AF
:1016B000492893E024E080914C28882331F09093CE
:1016C0005C28809149288E7F09C080914E2888230C
:1016D00041F020935C288091492881608093A7087D
:1016E00008C080914C28811104C080914E28882325
:1016F00031F3809158288823E1F380915828833072
:10170000D1F280914E28882339F080915B28109285
:1017100061281092602808959091582881E09130B6
:10172000B1F780E0F4CF81E0F2CFEF92FF920F9318
:101730001F93CF937C01C62F8091B4289091B52838
:10174000009709F450C02091B82820936228109285
:10175000612810926028DC01ED91FC910190F081EC
:10176000E02D60E009958701EE24E394F12CC1504F
:101770008091B4289091B528CF3F79F1B0E2EB1673
:10178000F104C0F072DF8091B4289091B5282091C7
:10179000B828209362281092612810926028DC01FA
:1017A000ED91FC910190F081E02D60E00995EE242F
:1017B000E394F12C8091B4289091B528F8016491BC
:1017C000DC01ED91FC910190F081E02D0995BFEFD6
:1017D000EB1AFB0A0F5F1F4FCACFCF911F910F91DA
:1017E000FF90EF9042CFE091C428F091C5289081FE
:1017F0008091CA28809589238083F701C15008F41D
:101800003DC044918091B2289091B328892B59F022
:1018100000004093C4088091C30887FFFCCF8091EB
:10182000C4083196EBCF28E030E090E8A091C028C2
:10183000B091C1288091C828542F5923D9F05C91C8
:10184000852B8C93A091C228B091C3288C91509184
:10185000C928852B8C93A091C228B091C3285C9194
:101860008091C928809585238C93969521503109C4
:10187000E9F6D7CF5C9180958523E3CFCF911F9177
:101880000F91FF90EF9008951F93CF93DF93EC019A
:101890008D8D9E8D009701F1162F29A1209362282E
:1018A0001092612810926028DC01ED91FC9101906A
:1018B000F081E02D60E009958D8D9E8DDC01ED912C
:1018C000FC910190F081E02D612F09958D8D9E8D09
:1018D000DF91CF911F91C9CEADA5BEA59C918BA9DB
:1018E000809589238C938B8D9C8D892B69F00000CA
:1018F0006093C4088091C30887FFFCCF8091C4081F
:10190000DF91CF911F91089528E030E090E8A9A5DC
:10191000BAA589A9462F4923A9F04C91842B8C9311
:10192000ABA5BCA58C914AA9842B8C93ABA5BCA577
:101930004C918AA9809584238C93969521503109E6
:1019400031F7DECF4C9180958423E9CF0895FC01D7
:101950006370668B8481958126813781613039F08F
:10196000633029F080879187228733870895208705
:1019700031878287938708952F923F924F925F928B
:101980006F927F928F929F92AF92BF92CF92DF928F
:10199000EF92FF920F931F93CF93DF93CDB7DEB7F4
:1019A0006A97CDBFDEBF898F9A8F69837A834A0198
:1019B000D22E0F8318873701BC2CDC0159962D914C
:1019C0003C915A972115310509F012C118968D9155
:1019D0009C911997681779070CF0D4C11A968D91CC
:1019E0009C91481759070CF0CDC14C2C512CB6E0F6
:1019F000CB9E600D711D11246B877C871616170610
:101A00000CF0C0C1EA2DF0E0E987FA8793E0EE0F11
:101A1000FF1F9A95E1F7EF87F88BCF01840F951F91
:101A2000181619060CF0AEC1A98DBA8D58968C9176
:101A3000811104C0BFEABD1508F4D394A98DBA8DF5
:101A4000ED91FC9111970284F385E02DCD0109956C
:101A5000B5E0DB9EC0011124E981FA81EB83FC83B0
:101A6000312C212C9C012B573E4F2F8B388F4A2D28
:101A700050E04D8B5E8BEF89F88DE20DF31D4491A4
:101A80008D829E82D12CC12C69817A81620D731D59
:101A9000698B7A8B842F90E08B8B9C8BE98DFA8DF0
:101AA000A081B18140FF7FC0F1E0BF126CC0AF12D6
:101AB0006AC01C96ED91FC912F813885A4014C0DD4
:101AC0005D1D69897A89898D9A8D0995EB89FC89D3
:101AD000F595E7954E2F5FEFC51AD50A6D817E818A
:101AE0008D899E89680F791F6D837E8398E0C91662
:101AF000D10481F6AFEF2A1A3A0AEB81FC81E40D9A
:101B0000F51DEB83FC83F5E02F16310409F0B3CF0C
:101B10002F81388526153705B9F0A98DBA8DED913D
:101B2000FC91B1E0BB1254C0AB1252C069817A8102
:101B30006B5F7F4F0088F189E02D830128E030E062
:101B4000A401898D9A8D0995A98DBA8DED91FC918D
:101B500011970688F789E02DCD016A96CDBFDEBFCB
:101B6000DF91CF911F910F91FF90EF90DF90CF9079
:101B7000BF90AF909F908F907F906F905F904F90AD
:101B80003F902F9009941E96ED91FC91EF80F88480
:101B900009851A8592014D815E816B817C81898DD9
:101BA0009A8D099593CF2F8138852615370509F42D
:101BB0008DCF31E0B31207C0A31205C01C96ED9182
:101BC000FC9193017BCF1E96ED91FC917301E0CFC8
:101BD0006B857C85641975090684F785E02D730192
:101BE0000F8518899201A401898D9A8D0995ACCF32
:101BF000F90134969491329745915491D91AB7E0EE
:101C0000DB9E400D511D1124F901259134912B8B40
:101C10003C8BFA0125903490FA01329674903196FB
:101C20003491398B329664903196449041E04C1552
:101C300018F04A1508F07FC0662D062C000C770BB3
:101C40006B837C83842D042C000C990B8D839E83E5
:101C5000A98DBA8DED91FC9111970284F385E02D49
:101C6000CD010995512CD12CC12CEA2DF0E0E9874A
:101C7000FA872B2D30E02B873C87A401440D511DA2
:101C800047FC5A954F8B588F69817A81660D711D7B
:101C900067FC7A956D877E877989C71608F054CFDF
:101CA0002C2D30E04D815E81420F531FA985BA85EE
:101CB0004A9FC0014B9F900D5A9F900D1124FC012B
:101CC000E80DF91DEF87F88B852D612C4F89588D14
:101CD000420F531F4D8B5E8B671408F050C0442495
:101CE0004394480E877041F4C1010196EB89FC8949
:101CF000E20DF31DD4901C01D7FE19C0A98DBA8D39
:101D0000ED91FC91662D70E0B1E0BB1219C0AB12F1
:101D100017C02D853E85620F731F0484F585E02D65
:101D20002F8138854D895E89898D9A8D0995DD0CC5
:101D30006394842DD1CF1D821E821B821C8288CF8A
:101D40004B815C81640F751FAB85BC856A9FC001A8
:101D50006B9F900D7A9F900D112469817A81680F95
:101D6000791F0684F785E02DEF80F88409851A85B0
:101D70009D014F855889898D9A8D0995D8CF570C2B
:101D8000C3948ACF6A96CDBFDEBFDF91CF911F91FA
:101D90000F91FF90EF90DF90CF90BF90AF909F900A
:101DA0008F907F906F905F904F903F902F9008950D
:101DB0008F929F92AF92CF92EF92FF920F931F93C9
:101DC000CF93DF93EC01262F898D9A8D009709F030
:101DD00050C06A30D1F41C861D868D8948E0849FEE
:101DE000900111248E859F85820F931F8E879F8778
:101DF00081E090E0DF91CF911F910F91FF90EF90E4
:101E0000CF90AF909F908F9008956D3089F3CC88DC
:101E1000AD888F898823C1F08C859D8536E0C39E6F
:101E2000800D911D1124488559854817590764F480
:101E30004E855F851C861D8638E0A39EC001112457
:101E4000840F951F8E879F87EA88FB8808891989E8
:101E50004E855F856C857D85CE018EDD2C898C85D8
:101E60009D8546E0249F800D911D11248C879D87C0
:101E7000BFCF6A3069F41C861D86FC013896E49158
:101E80002D898E859F85E29F800D911D1124AECFF7
:101E90006D3009F4ADCFFC0134963491631708F42A
:101EA000A7CF3296E491E61708F4A2CFFC01329650
:101EB00085909490462F431B342F47E0349F800C2D
:101EC000911C1124F401329634913196E49133231C
:101ED000A1F1EE2391F1CC88F4013596E491AD881F
:101EE0004F89442301F10E2E000CFF0BE30FF11D6F
:101EF000CE9EA001CF9E500D11246C857D85460F8E
:101F0000571F68857985641775076CF44E855F8562
:101F10001C861D86FC013896E491AE9E400D511D35
:101F200011244E875F87EA88FB88088919894E85C6
:101F30005F856C857D85CE011FDDF4013496E491CB
:101F40002C898C859D85E29F800D911D11248ECF5B
:101F50000F931F93CF93DF938C01D0E0C0E0F80183
:101F6000EC0FFD1F6491662339F087E998E220DFCA
:101F7000892B11F02196F3CFCE01DF91CF911F91E4
:101F80000F9108956F927F928F929F92AF92BF921E
:101F9000CF92DF92EF92FF920F931F93CF93DF9335
:101FA000EC016B015A0139014801E881F981028491
:101FB000F385E02D0995E881F9810288F389E02D08
:101FC00087019301A501B601CE010995A501480D30
:101FD000591D41505109E881F9810288F389E02DAA
:101FE0009301B601CE010995E881F9810088F18954
:101FF000E02D9401A501B601CE010995C60CD71CB0
:10200000B60161507109E881F9810088F189E02DFC
:102010009401A501CE010995E881F9810688F78927
:10202000E02DCE01DF91CF911F910F91FF90EF90A6
:10203000DF90CF90BF90AF909F908F907F906F90E8
:1020400009946F927F928F929F92AF92BF92CF929C
:10205000DF92EF92FF920F931F93CF93DF935C0178
:10206000EB016A01490138018701DC01ED91FC9126
:102070006217730719F5641675062CF0962D872DD7
:102080003A01C92ED82E9601261937092F5F3F4FE6
:10209000048CF58DE02DA301BE01C5010995DF91EA
:1020A000CF911F910F91FF90EF90DF90CF90BF9055
:1020B000AF909F908F907F906F9008954615570531
:1020C00091F42617370724F0892D4B01C22FD82F02
:1020D0009E01281939092F5F3F4F068CF78DE02D9F
:1020E000A601B401DACF0284F385E02D0995D5016C
:1020F000ED91FC910488F589E02D83019401A601FE
:10210000BE01C5010995D501ED91FC910688F789BD
:10211000E02DC501DF91CF911F910F91FF90EF90BE
:10212000DF90CF90BF90AF909F908F907F906F90F7
:102130000994EF92FF920F931F93DC011A960D9171
:102140001C911B9718962D913C911997ED91FC913C
:1021500000A0F1A1E02D7B0150E040E070E060E0E4
:1021600009951F910F91FF90EF9008954F925F9204
:102170006F927F928F929F92AF92BF92CF92DF9297
:10218000EF92FF920F931F93CF93DF936C012B017C
:102190005A0139014801DC01ED91FC910284F3857B
:1021A000E02D0995E201640C751CD601ED91FC91BE
:1021B000C615D7055CF40088F189E02D87019401EC
:1021C000A501BE01C60109952196EFCF0688F789C2
:1021D000E02DC601DF91CF911F910F91FF90EF90FD
:1021E000DF90CF90BF90AF909F908F907F906F9037
:1021F0005F904F9009948F929F92AF92BF92CF922F
:10220000DF92EF92FF920F931F93CF93DF93EC0136
:102210005B014A016901E881F9810284F385E02DBF
:10222000099595012C0D3D1D21503109E881F98159
:102230000488F589E02D78018401A401B501CE015F
:102240000995E881F9810688F789E02DCE01DF91B3
:10225000CF911F910F91FF90EF90DF90CF90BF90A3
:10226000AF909F908F9009948F929F92AF92BF9260
:10227000CF92DF92EF92FF920F931F93CF93DF9352
:10228000EC015B014A0169017801E881F98102846E
:10229000F385E02D0995C80CD91C86010150110960
:1022A000E881F9810488F589E02D9501A401B50143
:1022B000CE010995E881F9810688F789E02DCE01E4
:1022C000DF91CF911F910F91FF90EF90DF90CF9012
:1022D000BF90AF909F908F900994EF92FF920F93D1
:1022E0001F93DC01ED91FC9100A0F1A1E02D099577
:1022F0001F910F91FF90EF9008950F931F93DC01B2
:10230000ED91FC91068CF78DE02D09951F910F91B1
:1023100008950F931F93DC01ED91FC91048CF58DD2
:10232000E02D09951F910F910895DC01ED91FC912D
:102330000084F185E02D09942F923F924F925F9295
:102340006F927F928F929F92AF92BF92CF92DF92C5
:10235000EF92FF920F931F93CF93DF937C016B015A
:10236000EA0181E090E05C01A41AB50A66247724B2
:10237000641A750A660C771C10E000E088248394C8
:10238000912C822F8470582E822F8270482E822F9B
:102390008870382E2170222E0C171D070CF071C08A
:1023A000B7FC06C0219782E0680E711CA60CB71C12
:1023B0000F5F1F4F82E0880E911CA80CB91C55209E
:1023C000B1F021E030E0AE014C0D5D1DB701600FB2
:1023D000711F87E998E2A9DF21E030E0A601400FF4
:1023E000511FBE016E0D7F1D87E998E29EDF4420DC
:1023F000B1F021E030E0A6014C1B5D0BB701600F8E
:10240000711F87E998E291DF21E030E0A601401BCF
:10241000510BBE016E0D7F1D87E998E286DF3320E8
:10242000B1F021E030E0A601400F511FB7016C1B55
:102430007D0B87E998E279DF21E030E0AE014C0DB9
:102440005D1DB701601B710B87E998E26EDF2220EA
:1024500009F4A2CF21E030E0A601401B510BB701E7
:102460006C1B7D0B87E998E260DF21E030E0A6017C
:102470004C1B5D0BB701601B710B87E998E255DFC0
:102480008BCFDF91CF911F910F91FF90EF90DF9055
:10249000CF90BF90AF909F908F907F906F905F9004
:1024A0004F903F902F900895AF92BF92CF92DF92BE
:1024B000EF92FF920F931F93CF93DF936C01EB0189
:1024C0005B0184E0A81AB108760182E0E80EF11CF5
:1024D00001E010E0950150E040E0B70187E998E2A3
:1024E0000CDF95014FE150E0B70187E998E205DF85
:1024F0002CE130E042E050E0B60187E998E209DFE4
:10250000CC0DDD1DBE01615071092CE130E042E0CF
:1025100050E087E998E2FDDE21E042E050E062E031
:1025200070E0C70109DF239722E042E050E062E05B
:1025300070E0CE0101DF24E042E050E06DE170E0A8
:10254000CE01FADE28E042E050E06DE170E0C70124
:10255000DF91CF911F910F91FF90EF90DF90CF907F
:10256000BF90AF90E9CE3F924F925F926F927F9271
:102570008F929F92AF92BF92CF92DF92EF92FF9293
:102580000F931F93CF93DF9300D000D0CDB7DEB76A
:102590005C013B016A014901280187E0480E511C9A
:1025A00093E0559447949A95E1F7CA018E0D9F1DCB
:1025B00089839A83F12CE12C312C1B821C828B8124
:1025C0009C8187709927330C892B61F4EB81FC8106
:1025D00083E0F595E7958A95E1F7EE0DFF1DE80D8F
:1025E000F91D349037FE09C021E030E0A6016B816F
:1025F0007C81660D771DC50198DE8B819C810196DB
:102600008B839C8308171907D1F69FEFC91AD90A43
:10261000E40CF51C89819A81C816D90671F62496B6
:10262000CDBFDEBFDF91CF911F910F91FF90EF9053
:10263000DF90CF90BF90AF909F908F907F906F90E2
:102640005F904F903F9008952F923F924F925F92EC
:102650006F927F928F929F92AF92BF92CF92DF92B2
:10266000EF92FF920F931F93CF93DF93CDB7DEB717
:102670002697CDBFDEBF3C016A012D833E83EB82EE
:10268000FC825801A41AB50AB7FE03C0B194A19404
:10269000B1088D809E80861A970A97FE03C0919498
:1026A000819491088A149B045CF0902F812F0D81F6
:1026B0001E819D838E839C2D8D2D6B01692F782F1C
:1026C0000C151D055CF09D818E816D837E83692FC5
:1026D000782F902F812F8601C92ED82E1601201A0F
:1026E000310A2B012D813E81421A530A57FE03C045
:1026F000519441945108710137FE03C03FEFE31A32
:10270000F30AF594E7948D819E81861797075CF50F
:10271000A1E0B0E0A983BA83C016D1064CF1D30181
:10272000ED91FC910484F585E02D2B813C81A8017D
:102730006D817E818A149B041CF04D815E81B801FD
:10274000C3010995E418F508F7FE0AC02D813E8102
:1027500089819A81280F391F2D833E83E20CF31C57
:102760000F5F1F4FD9CF2FEF3FEF29833A83D4CF8D
:102770002696CDBFDEBFDF91CF911F910F91FF90C5
:10278000EF90DF90CF90BF90AF909F908F907F9011
:102790006F905F904F903F902F900895089590E034
:1027A00080E008958F929F92AF92BF92CF92DF9276
:1027B000EF92FF920F931F93CF93DF93FC018681DB
:1027C000882319F081FF0EC07894DF91CF911F917B
:1027D0000F91FF90EF90DF90CF90BF90AF909F90C0
:1027E0008F90089580FFF1CF80849184A284B38478
:1027F000C12CD12C760110E09401A501B601C701CE
:10280000A0E00E949D2699F1217030E040E050E068
:1028100060E070E080E090E00E949D26D9F0D0E07A
:10282000C0E0103370F4C12FC695C695C69580E2FE
:10283000C89FE0011124C05FDB4F812F8770C80F54
:10284000D11DCF01810F911DDC0150968C91988193
:10285000892B88839401A501B601C70101E00E947C
:10286000822649015A016B017C011F5FC5CF848418
:102870009584A684B784C12CD12C760110E29401F2
:10288000A501B601C701A0E00E949D2609F49DCFD5
:10289000217030E040E050E060E070E080E090E0E7
:1028A0000E949D26D9F0D0E0C0E0103370F4C12F13
:1028B000C695C695C695B0E2CB9FE0011124C05FD6
:1028C000DB4F812F8770C80FD11DCF01810F911D64
:1028D000DC0150968C919881892B88839401A50105
:1028E000B601C70101E00E94822649015A016B012D
:1028F0007C011F5FC4CF8F929F92AF92BF92CF9205
:10290000DF92EF92FF920F931F93CF93DF93FC011F
:10291000C62F172F8681882319F081FF12C0F894E3
:10292000C093C0081093C108DF91CF911F910F9100
:10293000FF90EF90DF90CF90BF90AF909F908F90DF
:10294000089580FFEDCF80849184A284B384C12C4C
:10295000D12C7601D0E09401A501B601C701A0E019
:102960000E949D26B1F1217030E040E050E060E02F
:1029700070E080E090E00E949D26F1F090E080E021
:10298000D03370F48D2F86958695869520E2829FB0
:10299000C0011124805F9B4F2D2F2770820F911D46
:1029A000DC014C919F012D0F311DD90150964C93A4
:1029B000DC012C91287F2C939401A501B601C7015D
:1029C00001E00E94822649015A016B017C01DF5F10
:1029D000C2CF84849584A684B784C12CD12C76017F
:1029E000D0E29401A501B601C701A0E00E949D2696
:1029F00009F496CF217030E040E050E060E070E0F4
:102A000080E090E00E949D26F1F090E080E0D033DD
:102A100070F48D2F869586958695B0E28B9FC001C8
:102A20001124805F9B4F2D2F2770820F911DDC0199
:102A30004C919F012D0F311DD90150964C93DC0113
:102A40002C91287F2C939401A501B601C70101E0C8
:102A50000E94822649015A016B017C01DF5FC1CFD0
:102A6000EF92FF920F931F93CF93DF938091B4283F
:102A70009091B528892B09F483C06091CC2870917E
:102A8000CD288091CE289091CF280E947C0A65E0C5
:102A900083E09DE00E94950B60919B28615087E93F
:102AA00098E20E94440C20919D2830919E28C901F3
:102AB000079697FD079623E0959587952A95E1F768
:102AC00020919B2830919C28829F8001839F100D2C
:102AD000929F100D1124C091B628D091B7288091F3
:102AE000B4289091B5280C0F1D1F009709F477C0EA
:102AF0002091B828209362281092612810926028B3
:102B0000DC01ED91FC910190F081E02D60E40995EC
:102B1000EE24E394F12C8091B4289091B5280C1701
:102B20001D0709F443C0B0E2EB16F104C8F00E949F
:102B3000350B8091B4289091B5282091B828209326
:102B400062281092612810926028DC01ED91FC91BE
:102B50000190F081E02D60E40995EE24E394F12CDE
:102B60008091B4289091B5286991DC01ED91FC9198
:102B70000190F081E02D0995BFEFEB1AFB0ACBCF56
:102B80008091B2289091B328009729F06091D528C0
:102B90007091D628B0DEE091C628F091C7289081C8
:102BA0008091CB2880958923808371CF0E94350B3B
:102BB0008091B4289091B528892B09F458C0609170
:102BC000D0287091D1288091D2289091D328DF917C
:102BD000CF911F910F91FF90EF900C947C0AE091A0
:102BE000C428F091C52880819091CA28892B8083C0
:102BF0000C171D07E9F259918091B2289091B328E2
:102C0000892B51F000005093C4088091C30887FFBE
:102C1000FCCF8091C408ECCF28E030E090E8E09150
:102C2000C028F091C1288091C828452F4923D9F0A8
:102C30004081842B8083E091C228F091C328808159
:102C40004091C928842B8083E091C228F091C32849
:102C500040818091C9288095842380839695215056
:102C60003109E9F6C5CF408180958423E3CFE09117
:102C7000C628F091C72880819091CB28892B80832A
:102C80008091B2289091B328009739F0DF91CF91CD
:102C90001F910F91FF90EF9085CDDF91CF911F9104
:102CA0000F91FF90EF9008951F93CF93DF93EC0166
:102CB000162F8D8D9E8D892BC9F06DA97EA98FA9A8
:102CC00098AD0E947C0A66EA111167EACE010E9463
:102CD000440C8D8D9E8D892BC1F069AD7AAD8BAD85
:102CE0009CADDF91CF911F910C947C0A8B8D9C8DB4
:102CF000009719F06EAD7FADFEDDEFA5F8A99081CC
:102D00008CA9809589238083DECFEFA5F8A98081E7
:102D10009CA9892B80838B8D9C8D009721F0DF915E
:102D2000CF911F913FCDDF91CF911F910895CF9209
:102D3000DF92EF92FF921F93CF93DF93C4E6C12CF3
:102D4000D12C7601DFE011E0D0930606109308063F
:102D500080910B0680FFFCCF6091100670911106E8
:102D6000072E000C880B990B0E94F6249B01AC01E6
:102D7000C701B6010E94F8236B017C01C15021F705
:102D800020E030E048EC52E40E94602428E431EE78
:102D90004AEB5FEB0E94AA2520E030E049ED53E4C6
:102DA0000E94F823DF91CF911F91FF90EF90DF9069
:102DB000CF900895FC01908592FF04C0917081E04E
:102DC0002289291380E00895862F642F0C9413071D
:102DD0000F931F93CF93FC0181898932B8F4082F98
:102DE00010E0F801E350F047C081CF3F79F00E9436
:102DF0001707F801EA5DFF46E08180E2E89FF001F5
:102E00001124FC5F8085C82381E009F480E0CF9124
:102E10001F910F910895CF92DF92EF92FF920F933F
:102E20001F93CF93DF93EC0188858B7F8887CE013A
:102E3000CFDF182F8885869581701817B9F00E940A
:102E4000F4076A837B838C839D83888592E089273E
:102E50008887888582FB882780F9DF91CF911F9131
:102E60000F91FF90EF90DF90CF9008950E94F407AC
:102E7000CA80DB80EC80FD80AB01BC014C195D0990
:102E80006E097F098E819F81B0E0A0E04817590745
:102E90006A077B07F0F2888581701817D1F20E94CB
:102EA000F4076A837B838C839D83888591E08927DF
:102EB000846088870E94F40709851A852B853C85E4
:102EC000601B710B820B930B6D877E878F87988BAE
:102ED0000E94F40769877A878B879C87BACFCF9344
:102EE000DF93EC01188674DF882319F088858360EE
:102EF00088870E94F4076A837B838C839D83DF919C
:102F0000CF910895FC0180819181FC01FF2790FD04
:102F100006C080E094E1E82BF92B8081089580E0E1
:102F200093E1F9CFFC01FF2790FD12C080E094E10E
:102F3000E82BF92B60838FB7F8949DE923E094BFC9
:102F4000209300108FBF8091021081FDFCCF089567
:102F500080E093E1EDCFFC0101900020E9F731978B
:102F6000AF01481B590BBC0187E998E20C94B006ED
:102F70008F929F92AF92BF920F931F93CF93DF9345
:102F8000CDB7DEB7A197CDBFDEBF19A2423008F49E
:102F90004AE08E010F5D1F4F842E912CB12CA12C85
:102FA000A50194010E943826E62FB901CA01EA3032
:102FB000D4F4E05DD801EE938D01232B242B252B37
:102FC00079F790E080E0109711F0CD01C4DFA19671
:102FD000CDBFDEBFDF91CF911F910F91BF90AF901A
:102FE0009F908F900895E95CE5CFCF93DF93B3DF97
:102FF000EC0187EE90E9AFDF8C0F9D1FDF91CF9141
:1030000008954F925F926F927F928F929F92AF92AC
:10301000BF92CF92DF92EF92FF920F931F93CF93C5
:103020006B017C01742EAC019B010E940D2688234C
:1030300091F08AEE90E9CF911F910F91FF90EF9060
:10304000DF90CF90BF90AF909F908F907F906F90C8
:103050005F904F9080CF46015701E894B7F82FEF6B
:103060003FEF4FE75FE7C501B4010E940D268111D4
:103070000DC02FEF3FEF4FE75FE7C501B4010E949E
:103080005C2418161CF48EEE90E9D5CF2FEF3FEF9D
:103090004FE75FE4C701B6010E94A62518161CF48D
:1030A00082EF90E9C8CF2FEF3FEF4FE75FECC7010A
:1030B000B6010E945C2487FDF3CF20E030E0A90137
:1030C000C701B6010E945C2410E000E087FF0AC03F
:1030D0006DE287E998E20E94D80E8C01F7FAF0942D
:1030E000F7F8F094C0E060E070E080E09FE37C16C9
:1030F00041F020E030E040E251E40E946024CF5FE4
:10310000F6CFA70196010E94F8232B013C010E94F3
:10311000C8244B015C014AE02BDF7C01E00EF11E6C
:10312000CC23A9F1C501B4010E94F4249B01AC0198
:10313000C301B2010E94F7234B015C0186EF90E9C5
:103140000ADFE80EF91EC15010F120E030E040E245
:1031500051E4C501B4010E94AA252B013C010E9443
:10316000C8244B01B12CA12C4AE0C501B40100DFF9
:10317000E80EF91EC501B4010E94F4249B01AC01C4
:10318000C301B2010E94F7234B015C01DCCFC701F0
:10319000CF911F910F91FF90EF90DF90CF90BF9054
:1031A000AF909F908F907F906F905F904F90089519
:1031B00020919D2830919E28C901079697FD07967A
:1031C00023E0959587952A95E1F720919B283091EA
:1031D0009C28829FA001839F500D929F500D112427
:1031E00070E060E08091B6289091B7280C94E727B2
:1031F000CF93DF93CDB7DEB76397CDBFDEBFD12CC2
:10320000C12C3324339488248394912C73E0A72E0B
:10321000B12CE4E06E2E712CFFE54F2E512C88E787
:1032200098E2F9DD85E698E2F6DD90E080E00E9424
:103230008007BEDF3092AB283092AC2863E570E0A7
:1032400090E080E031D985E698E2B4DD811106C0D6
:1032500088E798E2AFDD882309F488C464E670E06B
:1032600080E090E00E94C70785E698E2A3DD88230E
:1032700009F44CC488E798E29DDD882309F446C42C
:10328000E0915F28F0E0EC50F047108191DF82E0A0
:103290008093AB288093AC2886E190E08093A328AC
:1032A0009093A42884E090E08093A5289093A6288A
:1032B00082EE90E00E94A80F81E08093AB2880937B
:1032C000AC2884E390E08093A3289093A42888E11D
:1032D00090E08093A5289093A628612F70E090E05D
:1032E00080E04AE045DE80EE90E00E94A80FB8DB67
:1032F00068EB7BE080E090E00E94C707612F70E000
:1033000090E080E00E94F6246B837C838D839E8313
:1033100023E333E343E35FE30E94AA250E94C8242A
:10332000262E20E030E040E45FE36B817C818D81DC
:103330009E810E94AA250E94C82470E090E080E04F
:103340000E94F62469877A878B879C872CEE31E56B
:1033500048E35FE30E94AA250E94C8246F870E9469
:10336000F40728EE33E040E050E00E943826DA010E
:10337000C90180529E4FAF4FBF4F888B998BAA8B4C
:10338000BB8B1F821886312C58E1C52ED12C88E7C3
:1033900098E241DD85E698E23EDD85E698E20ADDC9
:1033A000882309F48DC088E798E204DD882309F4B6
:1033B00087C090E080E00E948007FADE64E570E05C
:1033C00086E190E071D829E1A22EB12CA092A32829
:1033D000B092A42834E0C32ED12CC092A528D0925C
:1033E000A6288EEE90E00E94A80FEE24E394F12C24
:1033F0000CE010E027E630E04CE050E069E170E0DE
:1034000087E998E20E942110A092A328B092A428F4
:103410008EE090E08093A5289093A62888EF90E90D
:10342000E4DDA092A328B092A42886E190E08093E6
:10343000A5289093A62885E091E9D7DD13E01093A5
:10344000AB281093AC2885E090E08093A32890935C
:10345000A428C092A528D092A6288CEE90E00E94C5
:10346000A80F1093AB281093AC288CE690E08093C3
:10347000A3289093A428C092A528D092A6288AEECB
:1034800090E00E94A80F81E08093AB288093AC2845
:10349000E7DA62E370E080E090E00E94C70785E62B
:1034A00098E288DC8111BDC088E798E283DC811155
:1034B000B8C088E798E2AFDC85E698E2ACDCEFCFF5
:1034C0000E94F40728EE33E040E050E00E943826E6
:1034D00088899989AA89BB8982179307A407B507A8
:1034E00008F0E0C090E080E00E948007B12CA12CA1
:1034F00009E1C02ED12C84E0882E912C93E0392E46
:103500002224239485E698E255DC81118AC088E75D
:1035100098E281DC85E698E27EDC4ADE64E570E0D4
:1035200086E190E00E945412C092A328D092A42871
:103530008092A5289092A62884EA90E00E94A80F85
:10354000EE24E394F12C0CE010E027E630E04CE0B0
:1035500050E069E170E087E998E20E942110B5012E
:103560000B2C000C880B990B0E94F6242B013C01BC
:1035700020E030E044E352E40E945C2487FF52C024
:10358000C092A328D092A428AEE0B0E0A093A528D2
:10359000B093A62881E191E928DDC092A328D092BA
:1035A000A42886E190E08093A5289093A6288EE138
:1035B00091E91BDDC501019666E970E00E942526B0
:1035C0005C013092AB283092AC2825E030E02093AB
:1035D000A3283093A4288092A5289092A62882EA56
:1035E00090E00E94A80F3092AB283092AC288CE675
:1035F00090E08093A3289093A4288092A52890928D
:10360000A62880EA90E00E94A80F2092AB28209282
:10361000AC2826DA62E370E080E090E00E94C70701
:1036200071CFE6DD20E030E044EB52E4C301B201AB
:103630000E945C2487FF1CC02CE130E02093A3286B
:103640003093A4288EE090E08093A5289093A6283C
:103650008BE291E9CADCC092A328D092A42886E12B
:1036600090E08093A5289093A62888E391E9A1CFC4
:10367000C092A328D092A428AEE0B0E0A093A528E1
:10368000B093A62888EF90E9B0DCC092A328D0922E
:10369000A42886E190E08093A5289093A62885E051
:1036A00091E987CF44DB4B015C0114E1412C512CA3
:1036B00032019DE090930606A1E0A0930806809158
:1036C0000B0680FFFCCF6091100670911106072E4B
:1036D000000C880B990B0E94F6249B01AC01C301DE
:1036E000B2010E94F8232B013C01115011F720E098
:1036F00030E040EA51E40E94602420E030E040E500
:1037000052E40E9460242B013C01A50194016985CB
:103710007A858B859C850E94A62518169CF4BF850A
:10372000B311339420E030E048E251E4C301B20128
:103730000E945C2487FF20C021E02315E8F43A941E
:103740003A941AC0A50194016B817C818D819E8180
:103750000E94A62518160CF0B5C02310339420E063
:1037600030E048E251E4C301B2010E945C2487FFCB
:1037700003C031E0331518F3231408F4322C832DE1
:1037800090E00E94800714DD60E1E62EF12C00E15C
:1037900010E020EC30E043E050E070E060E087E9CA
:1037A00098E20E94B31220EC30E043E050E060E782
:1037B00070E087E998E20E94B31280E590E0AF8163
:1037C000B8858A1B9B0B74E0880F991F7A95E1F7E7
:1037D00060E570E00E9425266D877E87F12CE12C44
:1037E0008B0120E130E043E050E070E060E087E9E9
:1037F00098E20E94B6100D851E8520E130E043E07E
:1038000050E060E770E087E998E20E94B6108F818F
:103810009885019660E570E00E9425268F83988741
:10382000B2E0B093AB28B093AC2826E130E020930F
:10383000A3283093A42884E090E08093A528909357
:10384000A62888EB90E00E94A80F91E09093AB2807
:103850009093AC28A4E1B0E0A093A328B093A4284F
:10386000C092A528D092A62886EB90E00E94A80FCF
:1038700041E0C301B201C5DB84EB90E00E94A80FD8
:1038800020E030E048EC52E4C501B4010E94A625D6
:1038900087FDB1C02EE430E02093A3283093A42804
:1038A000C092A528D092A62882EB90E00E94A80F93
:1038B00040E0C501B401A5DB80EB90E00E94A80FB9
:1038C000CFD865CD90E080E00E94800730DAE9E152
:1038D000AE2EB12CF4E0CF2ED12CA4E38A2E912C65
:1038E000B3E03B2E2224239485E698E263DA81112B
:1038F0009FC088E798E28FDA85E698E28CDA58DC98
:1039000064E570E086E190E00E945412A092A32842
:10391000B092A428C092A528D092A62882E091E077
:103920000E94A80FEE24E394F12C0CE010E027E6AF
:1039300030E04CE050E069E170E087E998E20E94F5
:103940002110A092A328B092A4282EE030E020936A
:10395000A5283093A62885E491E947DBE8D92B0117
:103960003C0120E030E048EC52E40E94A62587FDAF
:103970005AC081E390E08093A3289093A42886E125
:1039800090E08093A5289093A62880E091E00E9483
:10399000A80F40E0C301B20134DB8EEF90E00E943B
:1039A000A80F3092AB283092AC28A5E0B0E0A093ED
:1039B000A328B093A428C092A528D092A6288CEF63
:1039C00090E00E94A80F3092AB283092AC282CE6F1
:1039D00030E02093A3283093A428C092A528D09249
:1039E000A6288AEF90E00E94A80F2092AB28209290
:1039F000AC2836D879CF20E030E040E251E4C50170
:103A0000B4010E94A62587FD07C081E590E0809360
:103A1000A3289093A42844CFA4E5B0E0A093A328C2
:103A2000B093A4283DCF8092A3289092A428A7CF3A
:103A3000BFDB64E570E086E190E00E94541229E16A
:103A4000C22ED12CC092A328D092A42884E090E06A
:103A50008093A5289093A6288CE291E00E94A80F5D
:103A6000EE24E394F12C0CE010E027E630E04CE08B
:103A700050E069E170E087E998E20E942110C0926D
:103A8000A328D092A4288EE090E08093A52890935C
:103A9000A62888EF90E9A9DAC092A328D092A4289A
:103AA00086E190E08093A5289093A62885E091E98F
:103AB0009CDA4FE0E42EF12C00E110E02EE031E042
:103AC00049E050E070E060E087E998E20E94B312BC
:103AD0002EE031E049E050E060E770E087E998E2ED
:103AE0000E94B3120E94301585E698E263D98111D5
:103AF00006C088E798E25ED9882309F492CD88E76A
:103B000098E289D985E698E286D9EECF88E798E2EF
:103B100051D98823A1F080915F28883080F4222435
:103B20002394280E20925F2889829A82CE010196E2
:103B3000E9D9281621F0622D81E090E0F3D985E6DD
:103B400098E238D9882391F020905F28222071F0E4
:103B50002A9420925F2889829A82CE010196D2D936
:103B6000281621F0622D81E090E0DCD9B6010D2C01
:103B7000000C880B990B3AD720E030E048EC52E477
:103B80009BD6A092A328B092A4286092A5287092F8
:103B9000A62887FF60C087E791E00E94A80FEE2467
:103BA000E394F12C0CE010E02FE430E04CE050E026
:103BB00063E070E087E998E20E942110A092A328B8
:103BC000B092A4288EE090E08093A5289093A62838
:103BD0008AE691E00E94A80FA092A328B092A428A0
:103BE000A6E1B0E0A093A528B093A6288DE591E0CA
:103BF0000E94A80FC601019668EC70E00E9425267D
:103C00006C014092A3285092A42886E090E0809313
:103C1000A5289093A6288CE391E00E94A80F4092DB
:103C2000A3285092A428A2E1B0E0A093A528B093C5
:103C3000A628E0915F28F0E0EC50F047608170E04A
:103C400090E080E04AE094D98AE391E00E94A80FD6
:103C50000E943015E4CA8FE491E00E94A80FEE2480
:103C6000E394F12C0CE010E02FE430E04CE050E065
:103C700063E070E087E998E20E942110A092A328F7
:103C8000B092A42822E130E02093A5283093A62802
:103C900081E491E0ADCF0E94E3271F920F920FB60F
:103CA0000F9211248F939F93AF93BF9380915428C9
:103CB00090915528A0915628B09157280196A11DA2
:103CC000B11D8093542890935528A0935628B09303
:103CD000572881E08093A60ABF91AF919F918F9161
:103CE0000F900FBE0F901F9018951F920F920FB656
:103CF0000F9211242F933F934F935F936F937F9372
:103D00008F939F93AF93BF93CF93EF93FF93C09104
:103D1000AB08C2FF0AC0109253281092522810928A
:103D2000512884E00E94520A12C0C6FF2DC0809123
:103D30005028813041F48091532890E0F0E0E0E099
:103D4000099510925028C0FF14C00E945F0AFF918D
:103D5000EF91CF91BF91AF919F918F917F916F9193
:103D60005F914F913F912F910F900FBE0F901F9039
:103D7000189580E48093AB0881E00E94520A8091FC
:103D8000AB0885FFE4CFE1CFC7FF50C0C3FF08C039
:103D900010925328109252281092512883E0C2CFDB
:103DA0008091A90880668093A9088091AB0881FF63
:103DB00026C080915228882349F08091AB0884FF67
:103DC00005C082E08093AA0881E0ACCF9091522890
:103DD00080915128981778F4E0915228F0E0808182
:103DE0008093AD08809152288F5F8093522883E0A2
:103DF0008093AA08ACCF82E08093AA0893CF9091D9
:103E0000532880914F28981760F48091AD08E09175
:103E10005328F0E08083809153288F5F809353284C
:103E2000E6CF86E08093AA0882E07CCF85E07ACF57
:103E30001F920F920FB60F9211242F938F939F937F
:103E4000EF93FF938091A508982F9C70C1F080910B
:103E5000A50894E082FF93E0909358288093A508EA
:103E600081E080935C2810925928FF91EF919F91F7
:103E70008F912F910F900FBE0F901F90189586FF76
:103E80004CC020914C2890914E288091A50884FF29
:103E900010C080914D28882351F083E08093A408BE
:103EA00085E0809358281092592881E031C081E044
:103EB000F5CF80915A28821790F4E0915A2880918A
:103EC0004A2890914B28E80FF92FF11D80818093AB
:103ED000A80880915A288F5F80935A28C6CF809176
:103EE0005B28891748F484E080935C2880914928F6
:103EF00081608093A708B9CF80914D28882359F01D
:103F000083E08093A40881E0809358281092592878
:103F100080935C28AACF81E0F4CF87FF37C09091CF
:103F20005B2880914E289817A8F48091A808E0910A
:103F30005B28F0E0808380915B288F5F80935B2813
:103F400090914E2880915B288917C0F482E080937D
:103F5000A4088BCF80914D28882371F087E080934F
:103F6000A40882E0809358281092592881E0809319
:103F70005C2810924E2879CF85E0F1CF80914D28B2
:103F8000882311F087E0BDCF85E0BBCF86E089CFE5
:103F900024E0FC01218321E2208308950F931F93E5
:103FA000CF930BE818E2F8011282138288EE93E0B7
:103FB000A0E0B0E084839583A683B78385EA90E987
:103FC0008083918383E698E2E3DFE7E9F8E21282F7
:103FD000138220E830E02483358380E290E08683FA
:103FE00097832087318782879387168A1486158660
:103FF00016861786C1E0C58BC48B8FEF9FEF828B2F
:10400000938B808B918BC78B108E118E128E8FEBC2
:1040100090E980839183138E148E058F168F178EEF
:1040200010A28FEF84A385A386A387A380A780E82F
:104030009AE1A6E0B0E085AB96ABA7ABB0AF80EA63
:1040400096E8A1E0B0E081AF92AFA3AFB4AF85ED49
:1040500098E29EDFE8E7F8E212821382148215826A
:104060002AE030E0268337831086118A87EB90E9B7
:1040700080839183C28BE5E6F8E212821382148278
:104080001582268337831086118A80839183C28BA1
:10409000CF911F910F910895CF93DF9300D0CDB7AB
:1040A000DEB788ED90E084BF9093610080910206B6
:1040B00086608093020680910006816080930006EE
:1040C000809102068F7C8065809302061092E20543
:1040D00082E08093E40581E08093030A8EEF809371
:1040E000270A8093260A80E880932D0A80932B0A62
:1040F0008093290A80932C0A80932A0A8093280AA5
:104100008BE08093000A87E08093E505E0E8FAE021
:1041100037E02EEF90E885E0318324879587808310
:104120007096E03C4AE0F407B9F71092A10A8FE7D5
:104130009EE38093AC0A9093AD0A8091A50A8160BA
:104140008093A50A1092A00A8091A00A81608093B2
:10415000A00A789461E081E10E94DD0660E081E1DF
:104160000E94420760E087E20E94DD0660E085E28F
:104170000E94DD0687E18093892888E798E20E9403
:104180006F1710928A280AE010E000937E2810939F
:104190007F2886E18093762885E698E20E946F1753
:1041A0001092772800936B2810936C2881E090E0A0
:1041B00089839A83CE0101960E94821790E069E07C
:1041C00070E02FD580935F288091B6289091B72812
:1041D000892B39F10E94D81880919D2890919E28B2
:1041E00060919B2870919C28813291050CF098C0B9
:1041F000AC014052510957FF02C04F5F5F4F5595C8
:1042000047956357710977FF02C06F5F7F4F7595C0
:10421000679520E2E22EF12C03E710E027EA36E072
:1042200097C020919D2830919E28C901079697FD3F
:104230000796B3E095958795BA95E1F720919B286D
:1042400030919C28AC01429FC001439F900D529F2A
:10425000900D112493D58093B6289093B728892B7D
:1042600009F0B8CF0E94D81881E08093AB288093E2
:10427000AC2881E090E08093A9289093AA288093AD
:10428000A7289093A8281092A3281092A4281092EF
:10429000A5281092A6288BE1E82EF12C00E810E06A
:1042A00023E53BE050E040E070E060E087E998E221
:1042B0000E94B31200E510E00093A3281093A428F5
:1042C00080E190E08093A5289093A6288DE49BE060
:1042D0000E94A80F41E060E070E080E89FE30E9448
:1042E00001180093A3281093A42888E190E08093FC
:1042F000A5289093A62887E49BE00E94A80F41E0A0
:1043000060E070E080E490E40E9401180E943015A3
:1043100068EB7BE080E090E00E94C7070E94F818FD
:10432000AC014054510957FF02C04F5F5F4F559594
:1043300047956255710977FF02C06F5F7F4F759592
:104340006795F0E4EF2EF12C02E510E027E838E065
:1043500087E998E20E94B31282E08093B9288091A5
:10436000B4289091B528892B09F4EFC08CE3809391
:10437000B82810925E2810925D2810926128109241
:10438000602880915C28811123C08091E3058073AF
:1043900009F0CEC062E082E00E94DD0662E083E0C8
:1043A0000E94DD0611E010935C2810925B281092A9
:1043B0005A28109259281092582881EC8093A3080B
:1043C00060EA76E881E090E00E947C0A1093A508FC
:1043D0008091BF2887FD24C061E00E94130780916F
:1043E000BF28893218F461E00E94420761E070E062
:1043F00080E090E00E94C7078091BF28893218F4BE
:1044000060E00E9442076AE070E080E090E00E9475
:10441000C7078091BF28893218F461E00E944207E3
:104420008091B4289091B528892B09F492C16091AC
:10443000CC287091CD288091CE289091CF280E94D1
:104440007C0A64E083EA96E00E94950B60919D28C7
:10445000615087E998E20E94440C64E08FE996E09D
:104460000E94950B8091B92864E1813009F460E1E4
:1044700087E998E20E94440C64E08BE996E00E9490
:10448000950B8FE88093D42880919B2890919C284D
:104490008038910509F076C180919D2890919E28E1
:1044A0008034910509F07EC18091B928813009F4EA
:1044B00067C18FEC8093D42812E16AED87E998E216
:1044C0000E94440C612F87E998E20E94440C61E845
:1044D00087E998E20E94440C6091D42887E998E229
:1044E0000E94440C69ED87E998E20E94440C809197
:1044F000B92861EF813009F462E287E998E20E940D
:10450000440C66E085E996E00E94950B8091B42802
:104510009091B528892B09F449C16091D0287091F8
:10452000D1288091D2289091D3280E947C0A9ACEDB
:104530008091E3058073803209F034CF62E080E13E
:104540000E94DD0662E081E12BCF61E08091BD2811
:104550000E94130761E08091BE280E941307E0913A
:10456000BD28E9320CF082C0AE2F0E2E000CBB0B22
:10457000AA5DBF468C91863008F078C050E2859FD6
:10458000C00111249C5F04968093C4289093C52891
:104590008FEFE93234F40E2E000CFF0BE350F0479E
:1045A00080818093CA28A091BE28A9320CF061C0F6
:1045B000EA2F0A2E000CFF0BEA5DFF46E081E63091
:1045C00008F057C080E2E89FF0011124FC5FCF01A2
:1045D00004968093C6289093C7288FEFA93234F4AD
:1045E0000A2E000CBB0BA350B0478C918093CB28B4
:1045F0009481892B8483E091B228F091B32830977D
:1046000009F44CC0858181110CC016821782108676
:10461000118612861386148615861686178681E003
:1046200085838091E3058C7F9481892B8093E305BA
:104630008481811121C061E084E00E94DD0661E097
:1046400086E00E94DD068091C10884608093C108E5
:104650008091C00881628093C00890916328809106
:1046600064289093C0088093C108B2CE90E080E0A7
:104670008ACFF0E0E0E0ABCF813039F461E08EE04A
:104680000E94DD0661E080E1DCCF8230E1F661E08E
:104690008EE10E94DD0661E080E2D3CF61E080918F
:1046A000BB280E94130761E08091BC280E94130779
:1046B000E091BB28E9320CF046C0AE2F0E2E000C64
:1046C000BB0BAA5DBF468C918630E8F520E2829F45
:1046D000C00111249C5F04968093C0289093C12848
:1046E0008FEFE93234F40E2E000CFF0BE350F0474D
:1046F00080818093C828A091BC28A9323CF5EA2F7C
:104700000A2E000CFF0BEA5DFF46E081E630F0F474
:1047100040E2E49FF0011124FC5FCF0104968093F6
:10472000C2289093C3288FEFA93234F40A2E000CCC
:10473000BB0BA350B0478C918093C928948180957E
:104740008923848345CE90E080E0C5CFF0E0E0E0AF
:10475000E4CF8091B2289091B328009731F0609116
:10476000D5287091D6280E947B14E091C628F0913C
:10477000C72890818091CB2880958923808361CE42
:104780008FE998CE8036910569F480919D289091AB
:104790009E28409739F48091B928813029F08FEA1A
:1047A0008093D42812E089CE80E1FACFE091C62828
:1047B000F091C72880819091CB28892B80838091AC
:1047C000B2289091B328009709F44CCD0E94D213DF
:1047D00049CD8FEB90E9809397289093982880910A
:1047E000B6289091B728009709F064C308955058EF
:1047F000BB27AA270ED070C161D130F066D120F05E
:1048000031F49F3F11F41EF456C10EF4E095E7FB1E
:104810004CC1E92F72D180F3BA176207730784077E
:10482000950718F071F49EF58AC10EF4E0950B2EF1
:10483000BA2FA02D0B01B90190010C01CA01A001F2
:104840001124FF27591B99F0593F50F4503E68F14D
:104850001A16F040A22F232F342F4427585FF3CF8E
:10486000469537952795A795F0405395C9F77EF45F
:104870001F16BA0B620B730B840BBAF09150A1F0A8
:10488000FF0FBB1F661F771F881FC2F70EC0BA0F2E
:10489000621F731F841F48F4879577956795B795B6
:1048A000F7959E3F08F0B3CF9395880F08F09927AE
:1048B000EE0F979587950895D4D008F481E0089578
:1048C0000CD00AC102D140F0F9D030F021F45F3FA2
:1048D00019F0EBC0511134C1EEC00FD198F39923F8
:1048E000C9F35523B1F3951B550BBB27AA276217B4
:1048F0007307840738F09F5F5F4F220F331F441FF9
:10490000AA1FA9F333D00E2E3AF0E0E830D0915030
:104910005040E695001CCAF729D0FE2F27D0660F1D
:10492000771F881FBB1F261737074807AB07B0E85C
:1049300009F0BB0B802DBF01FF2793585F4F2AF072
:104940009E3F510568F0B1C0FBC05F3FECF3983E5D
:10495000DCF3869577956795B795F7959F5FC9F7CF
:10496000880F911D9695879597F90895E1E0660F58
:10497000771F881FBB1F621773078407BA0720F0D1
:10498000621B730B840BBA0BEE1F88F7E09508953A
:10499000BCD088F09F5790F0B92F9927B751A0F05D
:1049A000D1F0660F771F881F991F1AF0BA95C9F7C3
:1049B00012C0B13081F0C3D0B1E00895C0C0672FFC
:1049C000782F8827B85F39F0B93FCCF38695779573
:1049D0006795B395D9F73EF490958095709561955C
:1049E0007F4F8F4F9F4F0895E89409C097FB3EF487
:1049F00090958095709561957F4F8F4F9F4F99232C
:104A0000A9F0F92F96E9BB279395F69587957795A9
:104A10006795B795F111F8CFFAF4BB0F11F460FF69
:104A20001BC06F5F7F4F8F4F9F4F16C0882311F0C1
:104A300096E911C0772321F09EE8872F762F05C0D5
:104A4000662371F096E8862F70E060E02AF09A9570
:104A5000660F771F881FDAF7880F9695879597F965
:104A60000895990F0008550FAA0BE0E8FEEF1616FF
:104A70001706E807F907C0F012161306E407F50752
:104A800098F0621B730B840B950B39F40A2661F0C6
:104A9000232B242B252B21F408950A2609F4A14069
:104AA000A6958FEF811D811D089597F99F6780E876
:104AB00070E060E008959FEF80EC089500240A9470
:104AC0001616170618060906089500240A941216E9
:104AD0001306140605060895092E0394000C11F41C
:104AE000882352F0BB0F40F4BF2B11F460FF04C0C9
:104AF0006F5F7F4F8F4F9F4F089557FD9058440F22
:104B0000551F59F05F3F71F04795880F97FB991F2C
:104B100061F09F3F79F087950895121613061406E9
:104B2000551FF2CF4695F1DF08C016161706180676
:104B3000991FF1CF86957105610508940895E89451
:104B4000BB2766277727CB0197F908958ADF08F4FA
:104B50008FEF08950BD0C0CFB1DF28F0B6DF18F08B
:104B6000952309F0A2CFA7CF1124EACFC6DFA0F387
:104B7000959FD1F3950F50E0551F629FF001729FF2
:104B8000BB27F00DB11D639FAA27F00DB11DAA1F11
:104B9000649F6627B00DA11D661F829F2227B00D5E
:104BA000A11D621F739FB00DA11D621F839FA00DE9
:104BB000611D221F749F3327A00D611D231F849F39
:104BC000600D211D822F762F6A2F11249F57504090
:104BD0008AF0E1F088234AF0EE0FFF1FBB1F661F2B
:104BE000771F881F91505040A9F79E3F510570F0E4
:104BF0005CCFA6CF5F3FECF3983EDCF386957795CC
:104C00006795B795F795E7959F5FC1F7FE2B880FDE
:104C1000911D9695879597F9089523DF880B990B39
:104C20000895AA1BBB1B51E107C0AA1FBB1FA617F3
:104C3000B70710F0A61BB70B881F991F5A95A9F745
:104C400080959095BC01CD01089597FB072E16F431
:104C5000009406D077FD08D0E4DF07FC05D03EF4D1
:104C6000909581959F4F0895709561957F4F089518
:104C7000A1E21A2EAA1BBB1BFD010DC0AA1FBB1F60
:104C8000EE1FFF1FA217B307E407F50720F0A21BD2
:104C9000B30BE40BF50B661F771F881F991F1A943F
:104CA00069F760957095809590959B01AC01BD0169
:104CB000CF010895052E97FB16F400940FD057FDF1
:104CC00005D0D6DF07FC02D046F408C050954095C9
:104CD000309521953F4F4F4F5F4F089590958095A8
:104CE000709561957F4F8F4F9F4F089538D0A59F46
:104CF000900DB49F900DA49F800D911D11240895D7
:104D000097FD1094002E083098F00850232F342F70
:104D1000452F562F672F782F892F912DF4CF15947B
:104D200097958795779567955795479537952795E3
:104D30000A95AAF71124002D08950024A7FD0094D8
:104D40002A1730054005500560057005800590055F
:104D50000895EE0FFF1F0590F491E02D0994A29F96
:104D6000B001B39FC001A39F700D811D1124911D3F
:104D7000B29F700D811D1124911D08950F931F93F3
:104D8000CF93DF938230910510F482E090E0E091C0
:104D9000D928F091DA2830E020E0B0E0A0E03097A8
:104DA00099F42115310509F44AC0281B390B243028
:104DB0003105D8F58A819B816115710589F1FB0167
:104DC00082839383FE0111C040815181028113814E
:104DD00048175907E0F04817590799F4109761F000
:104DE00012960C93129713961C933296CF01DF9173
:104DF000CF911F910F9108950093D9281093DA282D
:104E0000F4CF2115310551F04217530738F0A901AD
:104E1000DB019A01BD01DF01F801C1CFEF01F9CF3C
:104E20008093D9289093DA28CDCFFE01E20FF31FAB
:104E3000819391932250310928833983D7CF2091D0
:104E4000D7283091D828232B41F420910228309183
:104E500003282093D7283093D82820910028309118
:104E600001282115310541F42DB73EB740910428A2
:104E700050910528241B350BE091D728F091D828B4
:104E8000E217F307A0F42E1B3F0B2817390778F021
:104E9000AC014E5F5F4F2417350748F04E0F5F1F80
:104EA0004093D7285093D828819391939FCFF0E0D7
:104EB000E0E09CCFCF93DF930097E9F0FC013297BD
:104EC00012821382A091D928B091DA28ED0130E046
:104ED00020E01097A1F420813181820F931F20914F
:104EE000D7283091D8282817390709F061C0E093F6
:104EF000D728F093D828DF91CF910895EA01CE17F3
:104F0000DF07E8F54A815B819E0141155105B1F744
:104F1000E901EA83FB8349915991C40FD51FEC172E
:104F2000FD0761F4808191810296840F951FE9014C
:104F300088839983828193818A839B83F0E0E0E078
:104F400012968D919C9113970097B9F52D913C91F4
:104F50001197CD010296820F931F2091D72830918F
:104F6000D8282817390739F6309751F51092D928E3
:104F70001092DA28A093D728B093D828BCCFC28348
:104F8000D38340815181840F951FC817D90761F4DD
:104F90004E5F5F4F88819981480F591F408351832D
:104FA0008A819B81828393832115310509F0B0CFDB
:104FB000E093D928F093DA289ECFFD01DC01C0CF21
:104FC00012821382D7CF81E090E0F89407C0DC0111
:104FD00001C06D9341505040E0F7089516E0C5E8D8
:104FE000D6E003C0FE01B5DE2196C638D107D1F761
:044FF000F894FFCF63
:104FF4008C96A0AAB4BEC8D2DC01020408102040DA
:1050040080010204081020010204081020408001DD
:105014000204081020408001020408010204081060
:105024002040000000000000000001010101010116
:105034000202020202020202030303030303030344
:105044000404040405050505050505000000000029
:105054000000000000000000050101010101010041
:10506400000000000000000000000000000000003C
:105074000002030000010203040506070001020305
:1050840004050001020304050607000102030405E8
:1050940006070001020300010203040506000000E4
:1050A400001A0BF50ACF13AF06EE0ADF0AD10A0085
:1050B400000000E816E41600000000D80EB006CF89
:1050C40013CE13A309AF0695116D1189117D112417
:1050D40013AF06A70C541617095E09B610991021D0
:1050E40010C20F0D0A006E616E00696E66006F7665
:1050F40066002E00205075736820627574746F6E9C
:10510400002020746F2072657475726E0020546FD5
:105114006F6B206C6F6E67657200207468616E201F
:1051240035206D696E730054727920612068696757
:10513400686572002063757272656E7420505355F1
:0D5144000020205374696C6C20486F7400CB
:065151000000DB288000D5
:00000001FF
